:020000040000FA
:1080000000F002F800F032F80AA090E8000C824478
:108010008344AAF10107DA4501D100F027F8AFF255
:10802000090EBAE80F0013F0010F18BFFB1A43F056
:1080300001031847700300008003000000230024A0
:1080400000250026103A28BF78C1FBD8520728BF68
:1080500030C148BF0B6070471FB500F095F90FBCE9
:1080600000F014F80FB41FBD10B510BD00F010F8EB
:108070001146FFF7F1FF00F06DF900F02EF803B4A0
:10808000FFF7F2FF03BC00F04FF8000000F063B808
:10809000754600F02BF8AE4605006946534620F0C1
:1080A0000700854618B020B500F024F8BDE8204050
:1080B0004FF000064FF000074FF000084FF0000BA4
:1080C000AC46ACE8C009ACE8C009ACE8C009ACE813
:1080D000C00921F007018D46704710B50446AFF383
:1080E00000802046BDE81040FFF7C9BF0048704738
:1080F000B483000000B585B0694601AA0A604FF05C
:108100001600ABBE0198002802BF0548C01D20F034
:1081100007000399029A049B05B000BD0900000006
:10812000148400007047000001491820ABBEFEE730
:10813000260002000246C91C21F00301D2E9000317
:108140001B1A8B4201D2002070470144C91D21F047
:108150000701116070472DE9F34F83B000274FF4FA
:108160008074BA4603A821468DF80070FFF7E2FF3D
:108170005FEA000801D100F082F82146404600F095
:1081800070F8060009D04FF0010B4546C14616F8BD
:10819000014B8FB15C2C16D01CE008F10800414661
:1081A000C8F800000020C8F80400D8F8004020708B
:1081B000012005B0BDE8F08F222C01D0272C0FD173
:1081C0002746BA462CE03078222807D05C2805D014
:1081D000272803D0BC4203D1002721E0761C0446A7
:1081E0004CB12FB9202C06D0A4F10900042802D9E3
:1081F00005F8014BCBE74D4502D1BAF1000F0FD086
:1082000052464946002005F8010B6846AFF300804E
:108210009DF8000070B14D464FF0000A0BF1010BC4
:10822000002CB4D14FEA8B0103A8FFF783FF0400B1
:1082300002D004E0A946EFE7002000F020F800207B
:108240004246C4F8008005E012F8011B11B9401C39
:1082500044F82020AA42F7D3002144F820102146F8
:10826000A7E71CB50446CDE9000169461520ABBE61
:1082700008B100201CBD20461CBD7047704710B5DA
:1082800000F00AF8BDE81040AFF30080002801D0EC
:10829000FFF74ABF7047000010B5012805D0002144
:1082A00003A000F021F8012010BD09A1F8E70000AB
:1082B00053494752544D454D3A204F7574206F66CF
:1082C0002068656170206D656D6F72790000000037
:1082D0003A2048656170206D656D6F727920636F1B
:1082E000727275707465640070B505460C460A209C
:1082F00000E06D1C00F011F835B128780028F8D1A5
:1083000002E0641C00F009F814B120780028F8D1CC
:10831000BDE870400A20AFF3008008B569468DF8CB
:1083200000000320ABBE08BD83B00B4684468DF829
:108330000B008DF80A1001929DF80B009DF80A10B1
:1083400008448DF803009DF803000199087003B0FC
:108350007047000080B582B00020019001208DF8A8
:1083600003004FF009010846032005210DF1030227
:10837000FFF7DAFF9DF80300212802D1FFE7FFE7AE
:10838000FEE7002002B080BDF1EE100A4FF6FF714B
:10839000C0F2C03120EA010040F04070E1EE100A66
:1083A00070470000B4830000B48300006000000048
:0483B0003C8000000D
:04000005000083551F
:00000001FF
